:100000000C94442E0C94752E0C94752E0C94752E15
:100010000C94752E0C94752E0C94752E0C94752ED4
:100020000C94752E0C94752E0C94752E0C94752EC4
:100030000C94752E0C946F970C94752E0C94752E51
:100040000C94752E0C94ACA40C94752E0C94752EF7
:100050000C94752E0C94752E0D94B92A0C9425973A
:100060000C94752E0C94964E0C948C4E0C94752E0C
:100070000C94752E0C94752E0C94752E0C94752E74
:100080000C94CF470C94752E0C94752E0C94752EF1
:100090000C94752E0C94752E0C94752E0C94752E54
:1000A0000C94752E0C94752E0C94A1470C94752EFF
:1000B0000C94752E0C94752E0C94752E0C9473471D
:1000C0000C94752E0C94752E0C94752E0C94752E24
:1000D0000C94752E0C94752E0C94752E0C94752E14
:1000E0000C94752ECC4EDE4EF04E014F094F3C4F16
:1000F0000D4F3C4F114F154F3C4F194F1D4F214F86
:100100002A4F3C4F354F6A7D4D7D507D6D7D537D2F
:10011000567D597D657D5C7D787D5F7D627D2CD1CE
:100120009BCFD4CF68D1D4CFD4CFD4CFD4CFD4CF5A
:10013000D4CFD4CFD4CFD4CFD4CFD4CFD4CFD4CFA7
:10014000D4CFD4CFD4CFD4CFD4CFD4CFD4CFD4CF97
:10015000D4CFD4CFD4CFD4CFD4CF62D1D4CFD4CFF7
:10016000D4CFD4CFD4CFD4CFD4CFD4CF3BD1D4CF0E
:10017000D4CFD4CFD4CFD4CFD4CFD4CFD4CFD4CF67
:10018000D4CF7FD1D1CFBB024B0259021301A301BF
:100190006F0153014D0171026301C1023701410238
:1001A00025016F015F02830275027F02A102D10166
:1001B000D9019101D7014F021901BD029B019F0294
:1001C0005D02FD014D02D701B7029301A501084A66
:1001D000D73B3BCE016E84BCBFFDC12F3D6C74315B
:1001E0009ABD56833DDA3D00C77F11BED9E4BB4CB2
:1001F0003E916BAAAABE000000803F05A84CCDB27C
:10020000D44EB93836A9020C50B9918688083CA65C
:10021000AAAA2ABE000000803F000C940D4F0C9447
:1002200016620C941F790D94321E0C94CB7D0C94A5
:10023000114F0D9432210C94787D0D94D4100C94B0
:10024000B25B0C94A8D50C942A4F0D94631E0C94A9
:100250004D7D0D944D100C9484AD0D9444120C946E
:10026000F8960D941D6C0C94F04E0C941E5C0D943D
:100270005B1E0D9479130C947FD10D94DE2F0C949A
:10028000154F0C94EC4F0C94ED4F0C94A3AD0C94C3
:10029000537D0C9427790C940C5C0D94471E0D949F
:1002A0005A190D944B2E0D94431E0C94C1D20C94EC
:1002B000B5D20C94ADCE0C94094F0C94A0AF0C9415
:1002C000A9AD0C949ACE0D94511E0C94F04F0D9440
:1002D000552E0C9489AD0C94F1AD0C94AFAD0D94EA
:1002E000761E0C94675B0C944A790D94DC120C9486
:1002F000BB640D94392E0C9441660D94A7120C9496
:10030000354F0D9404320C946ECE0C94DE4E0C944A
:10031000805B0C945F7D0C94D6D70C94B5AD0C9497
:100320004EB20D9420210D9485210D94261B0C9422
:100330006A7D0C94DE5B0D9444210C9418CF0D94CF
:1003400068100D94FB120D94381E0D948F210D949E
:100350003A170D94E12F0C94735C0D943C170C9498
:1003600051B30C9447790C94CB5B0C94FEAF0C9476
:100370004C5B0D9485300C94657D0C943C4F0C9433
:100380002BCF0C94BBD20C944D790C94305C0C9414
:100390000B5B0C94365C0C941B690C942A5C0C94DB
:1003A0006FAD0D940C210D943B150D9429170D94F0
:1003B00099210D9416210D94D4330C94F75B0C9471
:1003C000405F0C949BCF0C94C4640D943E170C9426
:1003D00030AD0C94185C0C94395B0D944F2E0D9439
:1003E000DB2F0C9468D10C940B770C9439930D94FB
:1003F000AB180C941E690C94DE5E0D9467210C946E
:100400007AAD0D9483100C9423790C94C6CE0D9480
:10041000182F0C9450790D94422E0C94567D0D9407
:1004200038170D9403130C94225B0C94245C0C94E9
:10043000194F0C943B790C94995B0C94DA5E0D94F3
:1004400062190C94125C0C945C7D0C940EA40C94B8
:10045000AAAF0C94ADD70C94014F0C942D760C944C
:10046000CCCE0C94678A0D945E190C9406B00C9453
:100470000CCF0C949BAF0C9422970D94D1120C943A
:10048000CC5D0D945F1E0C947FAD0C94507D0C944C
:100490005D760C941D4F0D943F1E0D9471210D94AB
:1004A0002A210D9460190C94D67B0D94B9100C94EC
:1004B000214F0D942E1E0C942B790D9458210D94E0
:1004C000691E0C94627D0C9418690C943F790C940D
:1004D00019930C94DB5D0C9487CE0C94597D0C948D
:1004E0002CD10D944D1E0D94162E0D94711E0D944D
:1004F0004D2E0C94A5AF0C9455760D9425140D94A7
:1005000002210C9470640D946D1E0C94065C0C9486
:1005100043790C944A5B0D9498130C944C760D948B
:10052000C6120D949E100C94D4CF0C943BD10C9415
:1005300033790C9437790C94BD5D0C94AC640D94B4
:100540004E210D9407210C9462D10C94CC4E0C9446
:10055000C9CE0C94885C0C946D7D0D943B6C0D940D
:1005600040170C94D1CF0C942F790D945C190D94F5
:100570007B210D942D240D943C1E0D943A210D9455
:1005800088120D94551E4E414E494E495459494EBC
:1005900046CDCCCC3D0AD7233C17B7D13877CC2BEE
:1005A000329595E6241FB14F0A000020410000C893
:1005B0004200401C4620BCBE4CCA1B0E5AAEC59D14
:1005C0007400407A10F35A00A0724E18090010A56A
:1005D000D4E80000E87648170000E40B540200005D
:1005E000CA9A3B000000E1F50500008096980000E3
:1005F0000040420F000000A086010000001027000C
:10060000000000E803000000006400000000000A91
:1006100000000000000100000000002C76D888DCFB
:10062000674F0823DFC1DFAE59E1B1B796E5E3E4D8
:1006300053C63AE651997696E8E6C28426EB898C51
:100640009B62ED407C6FFCEFBC9C9F40F2BAA56FB3
:10065000A5F490055A2AF75C936B6CF9676DC11B82
:10066000FCE0E40D47FEF520E6B500D0ED902E034A
:1006700000943577050080841E080000204E0A0093
:100680000000C80C333333330F986E12831141EFDF
:100690008D2114893BE65516CFFEE6DB18D1844B3D
:1006A000381BF77C1D901DA4BBE424203284725EAD
:1006B000228100C9F124ECA1E53D27434F4D4D5562
:1006C0004E49434154494F4E0044525952554E00F1
:1006D0004552524F5253004543484F0020643A0060
:1006E00020693A0020703A0047322F473320626178
:1006F0006420706172616D65746572730A00536C79
:100700006565702E2E2E005A2050726F6265205043
:10071000617374204265640A005A2050726F6265EA
:1007200020506173742042656400486F6D652058E5
:10073000592066697273740A00486F6D65205859B4
:10074000204669727374004D65736820706F696E1E
:10075000742063616E6E6F74206265207265736FC2
:100760006C7665640A004E6F204D6F76652E0045ED
:100770006E642066696C65206C6973740A0042655A
:1007800067696E2066696C65206C6973740A005233
:100790006573756D696E6720534400286E6F20661F
:1007A000696C65290043757272656E742066696CA8
:1007B000653A20002569792025696420256968202B
:1007C00025696D20256973005072696E7420746903
:1007D0006D653A2000452025530044454255473A6F
:1007E000004D31313320530042656420436F6F6CFC
:1007F000696E672E2E2E004265642048656174691B
:100800006E672E2E2E00466F726D626F74205261DD
:1008100070746F7232204F46462E004348414D425D
:1008200045525F54454D5045524154555245004D37
:100830004F54494F4E5F4D4F444553005448455225
:100840004D414C5F50524F54454354494F4E004127
:1008500055544F5245504F52545F53445F53544187
:100860005455530050524F4D50545F535550504FB4
:10087000525400454D455247454E43595F504152F1
:1008800053455200434153455F4C494748545F42EA
:1008900052494748544E45535300544F47474C45DF
:1008A0005F4C494748545300534F465457415245B3
:1008B0005F504F574552004255494C445F50455296
:1008C00043454E54004C4556454C494E475F4441C4
:1008D0005441005A5F50524F4245004155544F4CCD
:1008E0004556454C005052494E545F4A4F420050C5
:1008F000524F4752455353004155544F5245504F64
:1009000052545F54454D5000564F4C554D4554522E
:1009100049430042494E4152595F46494C455F5454
:1009200052414E534645520053455249414C5F583F
:100930004F4E5F584F4646004649524D574152452B
:100940005F4E414D453A4D61726C696E20322E30DA
:100950002E355F52313020544D334420534F555281
:1009600043455F434F44455F55524C3A6874747039
:10097000733A2F2F6769746875622E636F6D2F4904
:100980006E73616E6974794175746F6D6174696FAE
:100990006E2F4D61726C696E2F747265652F526196
:1009A00070746F725F322E302E582050524F544F59
:1009B000434F4C5F56455253494F4E3A312E3020EB
:1009C0004D414348494E455F545950453A466F7230
:1009D0006D626F7420526170746F7232204558548A
:1009E00052554445525F434F554E543A3120555568
:1009F00049443A63656465326132662D343161324F
:100A00002D343734382D396231322D633535633624
:100A1000326633363766660A002F2F20004D313498
:100A20003520533C696E6465783E206F7574206F85
:100A3000662072616E67652028302D31290A003FDB
:100A40004A206F7574206F662072616E676520287A
:100A5000302E303120746F20302E33290A00465258
:100A60003A0020466C6F773A200050726F746563CD
:100A70007465642050696E0A00206F7574206F667B
:100A80002072616E67650A0020536572766F2000E0
:100A90006469730043290A0061626C656420286DF3
:100AA000696E2074656D702000436F6C64206578FA
:100AB00074727564657320617265200046696C61AB
:100AC0006D656E742072756E6F75742064697374D1
:100AD000616E636520286D6D293A200046696C615E
:100AE0006D656E742072756E6F757420004D3432B2
:100AF0003120696E636F7272656374207061726118
:100B00006D657465722075736167650A00454550AF
:100B1000524F4D204F4B0A0043617365206C69674B
:100B200068743A200043617365206C696768743AA1
:100B3000206F66660A00506F7765722D6C6F737355
:100B4000207265636F766572792000D706690BD0D5
:100B500006C906BB06554E4B4E4F574E20535441C7
:100B600054450047434F44455F494E464F004C4370
:100B7000445F50415553455F524553554D450046DE
:100B8000494C414D454E545F52554E4F55545F436D
:100B90004F4E54494E55450046494C414D454E54E3
:100BA0005F52554E4F5554004D38373620526573BD
:100BB000706F6E64696E672050524F4D50545F00E5
:100BC0004572726F722077726974696E6720746FF4
:100BD00020454550524F4D210A00627573793A20E5
:100BE00070617573656420666F7220696E707574CC
:100BF0000A00627573793A207061757365642066C6
:100C00006F7220757365720A00627573793A20708D
:100C1000726F63657373696E670A007061757365DF
:100C2000004D363030002066696C616D656E745F12
:100C300072756E6F7574200066696C616D656E7497
:100C40005F72756E6F757420540046696C616D65D6
:100C50006E7452756E6F75742054004E6F20436829
:100C600065636B73756D2077697468206C696E6558
:100C7000206E756D6265722C204C617374204C6916
:100C80006E653A2000636865636B73756D206D69EE
:100C9000736D617463682C204C617374204C696EB1
:100CA000653A20004C696E65204E756D6265722054
:100CB0006973206E6F74204C617374204C696E658B
:100CC000204E756D6265722B312C204C617374203F
:100CD0004C696E653A20004D31313000534420722A
:100CE000656164206572726F720A002121204B4990
:100CF0004C4C20636175736564206279204B494CCC
:100D00004C20627574746F6E2F70696E0A00212119
:100D1000204B494C4C2063617573656420627920D7
:100D2000746F6F206D75636820696E616374697696
:100D3000652074696D65202D2063757272656E740F
:100D400020636F6D6D616E643A2000363726033C78
:100D50003D380F2E303E121A1C1808440A09430869
:100D60000600016F6B00526573656E643A200023C4
:100D7000646566696E652044454641554C545F0084
:100D80004B6420004B6920004B70200050494420E8
:100D90004175746F74756E652066696E69736865F8
:100DA00064212050757420746865206C6173742010
:100DB0004B702C204B6920616E64204B6420636F64
:100DC0006E7374616E74732066726F6D2062656CF1
:100DD0006F7720696E746F20436F6E6669677572F6
:100DE0006174696F6E2E680A005049442041757421
:100DF0006F74756E65206661696C65642120746925
:100E00006D656F75740A000A20436C6173736963C2
:100E100020504944200A00204B643A2000204B69AE
:100E20003A2000204B703A20000A204E6F206F7647
:100E3000657273686F6F740A002054753A20002041
:100E40004B753A2000206D61783A2000206D696E64
:100E50003A200020643A200020626961733A200041
:100E6000504944204175746F74756E6520737461C8
:100E700072740A00504944204175746F74756E6530
:100E8000206661696C6564212054656D70657261CE
:100E90007475726520746F6F20686967680A005006
:100EA0004944204175746F74756E65206661696C84
:100EB000656421204261642065787472756465728E
:100EC000206E756D6265720A004572723A20757403
:100ED000663820666F6E74206E6F7420696E697458
:100EE00069616C697A65642E0000091200FC0A01D0
:100EF000E803D720FFFD0EFD0BFD00000009000EEA
:100F0000010B0B09040080808080808080000080BD
:100F10008004040409030790909090080A0A0900CD
:100F200000242424FF2424FF242424070B0B09017C
:100F3000FF107C929050381412927C10070A0A0914
:100F4000010042A4A4481010244A4A84070A0A094E
:100F5000010060909090606294889462010404099A
:100F6000040780808080030C0C0903FF2040408030
:100F70008080808080404020030C0C0903FF80406B
:100F8000402020202020204040800707070901033F
:100F900010925438549210070707090101101010DD
:100FA000FE1010100204040904FEC0C040800701B6
:100FB00001090104FE020202090400C0C0070A0A76
:100FC00009010002040408101020404080070A0AAA
:100FD00009010038448282828282824438070A0AE8
:100FE000090100103050901010101010FE070A0A6E
:100FF000090100384482020408102040FE070A0A52
:10100000090100FE020408180402028478070A0A93
:10101000090100040C14244484FE040404070A0A91
:10102000090100FE808080F80402028478070A0A21
:101030000901003C408080B8C482824438070A0A13
:10104000090100FE020404080810101010070A0A23
:1010500009010038448244384482824438070A0A2D
:1010600009010038448282463A02020478020707E6
:10107000090400C0C0000000C0C00209090904FE44
:10108000C0C0000000C0C040800509090902000876
:101090001020408040201008070404090102FE00CF
:1010A00000FE0509090902008040201008102040B8
:1010B00080070A0A0901003844820204081010005F
:1010C00010070A0A09010038449AAAAAAAAA9C4051
:1010D0003C070A0A09010010282828447C4482821F
:1010E00082070A0A090100F8848284F884828284D3
:1010F000F8070A0A0901003C428080808080804213
:101100003C070A0A090100F8848282828282828472
:10111000F8070A0A090100FE808080F8808080803C
:10112000FE070A0A090100FE808080F88080808026
:1011300080070A0A09010038448280808E82824436
:1011400038070A0A09010082828282FE8282828234
:1011500082050A0A090200F82020202020202020F1
:10116000F8070A0A0901003E0808080808088888E4
:1011700070070A0A09010082848890A0D0888482BE
:1011800082070A0A09010080808080808080808038
:10119000FE070A0A0901008282C6AA92828282821E
:1011A00082070A0A0901008282C2A2928A8682828A
:1011B00082070A0A0901007C8282828282828282FC
:1011C0007C070A0A090100F884828284F880808002
:1011D00080080B0B0901FF384482828282828A4494
:1011E0003A01070A0A090100F884828284F890888B
:1011F0008482070A0A0901007C8280807C02020244
:10120000827C070A0A090100FE101010101010104D
:101210001010070A0A090100828282828282828279
:101220004438070A0A09010082828244444428287B
:101230002810070A0A090100828282829292929201
:10124000AA44070A0A09010082824428101028448F
:101250008282070A0A0901008282442810101010B5
:101260001010070A0A090100FE020408102040803D
:1012700080FE040C0C0903FFF08080808080808059
:10128000808080F0070A0A09010080404020101089
:1012900008040402040C0C0902FFF01010101010D6
:1012A0001010101010F007040409010610284482E1
:1012B0000801010900FFFF03030309030A8040201E
:1012C0000707070901007C02027E82867A070A0A64
:1012D000090100808080BCC2828282C2BC070707ED
:1012E0000901007C82808080827C070A0A09010053
:1012F0000202027A86828282867A07070709010043
:101300007C8282FE80827C070A0A0901001C22225C
:101310002020F820202020070A0A0901FD7A848471
:101320008478807C82827C070A0A090100808080A0
:10133000BCC28282828282050A0A09020060000021
:10134000E02020202020F8050D0D0902FD180000E6
:1013500038080808080808888870070A0A09010080
:10136000808080848890B0C88482050A0A090200BF
:10137000E02020202020202020F807070709010076
:10138000EC929292929282070707090100BCC282F6
:10139000828282820707070901007C828282828220
:1013A0007C070A0A0901FDB8C4828282C4B8808021
:1013B00080070A0A0901FD3A46828282463A020201
:1013C000020707070901009C6242404040400707AE
:1013D000070901007C82807C02827C0709090901DF
:1013E000002020FC20202020221C070707090100E4
:1013F0008282828282867A070707090100828244FC
:10140000442828100707070901008282929292AAB5
:101410004407070709010082442810284482070A6C
:101420000A0901FD4242242424181810906007077D
:1014300007090100FE0408102040FE060B0B0902FC
:10144000001C20202020C0202020201C010C0C0982
:1014500004FF808080808080808080808080060B78
:101460000B090100E0101010100C10101010E00714
:10147000030309010762928CFFFFFFFFFFFFFFFFDD
:10148000FFFFFFFFFFFFFFFFFFFFFFFFFFFFFFFF6C
:10149000FFFFFFFFFFFFFFFFFF00000009000E013D
:1014A0000B0B090400808000008080808080808099
:1014B00006080809010008789490A0A47840070A5B
:1014C0000A0901001C222020F8202060A25C0706E7
:1014D00006090103827C44447C82070A0A09010050
:1014E000828244287C107C101010010B0B0904FF31
:1014F0008080808080008080808080040B0B0902C7
:10150000FF609080609090906010906003020209EC
:10151000030BA0A00809090900013C4299A5A1A557
:1015200099423C050707090103609070907800F824
:101530000708080901011224489090482412060463
:1015400004090102FC040404050101090204F8086D
:1015500009090900013C42B9A5BDA9A5423C060103
:1015600001090109FC040404090306609090600766
:101570000909090101101010FE10101000FE0406E8
:10158000060901046090106080F004060609010459
:1015900060902010906003030309030A2040800735
:1015A00009090901FE8282828282C6BA8080070A06
:1015B0000A0901007E8A8A8A7A0A0A0A0A0A02024B
:1015C00002090404C0C00403030902FD2090600363
:1015D000060609010440C0404040E0050606090136
:1015E000047088887000F8070808090101904824F1
:1015F0001212244890070A0A09010040C0404042E4
:10160000E60A121A06070A0A09010040C040404CC7
:10161000F2020C101E070A0A0901006090201092C5
:10162000660A121A06070A0A0901001000101020A3
:10163000408082827C070E0E0901002010080010F5
:10164000282828447C44828282070E0E0901000863
:1016500010200010282828447C44828282070E0E25
:101660000901001028440010282828447C44828264
:1016700082070D0D09010034580010282828447CE9
:1016800044828282070D0D090100282800102828B5
:1016900028447C44828282070E0E0901001028280B
:1016A0001010282828447C44828282070A0A0901F3
:1016B000001E2828284E784888888E070D0D0901BD
:1016C000FD3C42808080808080423C082418070EC8
:1016D0000E09010020100800FE808080F8808080C4
:1016E00080FE070E0E09010008102000FE80808099
:1016F000F880808080FE070E0E090100102844004B
:10170000FE808080F880808080FE070D0D0901003A
:10171000282800FE808080F880808080FE050E0EE4
:1017200009020040201000F8202020202020202046
:10173000F8050E0E09020010204000F8202020209D
:1017400020202020F8050E0E09020020508800F805
:101750002020202020202020F8050D0D0902005017
:101760005000F82020202020202020F8070A0A0915
:10177000010078444242F24242424478070D0D098A
:1017800001003458008282C2A2928A868282820735
:101790000E0E090100201008007C82828282828263
:1017A00082827C070E0E090100081020007C8282D4
:1017B0008282828282827C070E0E090100102844F8
:1017C000007C82828282828282827C070D0D0901E6
:1017D000003458007C82828282828282827C070D61
:1017E0000D0901002828007C828282828282828206
:1017F0007C07070709010182442810284482070C4E
:101800000C0901FF027C868A8A9292A2A2C27C8085
:10181000070E0E0901002010080082828282828257
:1018200082824438070E0E090100081020008282CF
:101830008282828282824438070E0E0901001028BB
:10184000440082828282828282824438070D0D099E
:1018500001002828008282828282828282443807A4
:101860000E0E09010008102000828244281010107A
:10187000101010070A0A0901008080FC828282FC95
:10188000808080060A0A09010038444448D0484450
:10189000444458070B0B090100201008007C020289
:1018A0007E82867A070B0B090100081020007C025B
:1018B000027E82867A070B0B090100102844007C07
:1018C00002027E82867A070A0A0901003458007CE7
:1018D00002027E82867A070A0A0901002828007C13
:1018E00002027E82867A070C0C090100102828105B
:1018F000007C02027E82867A0707070901006C12CB
:10190000127E90926C070A0A0901FD7C8280808019
:10191000827C104830070B0B090100201008007C66
:101920008282FE80827C070B0B09010008102000D8
:101930007C8282FE80827C070B0B09010010284408
:10194000007C8282FE80827C070A0A090100282826
:10195000007C8282FE80827C050C0C0902008040A3
:10196000200000E02020202020F8050C0C090200B7
:101970001020400000E02020202020F8050C0C0959
:1019800002002050880000E02020202020F8050BD5
:101990000B09020050500000E02020202020F80712
:1019A0000B0B090100483050083C448282824438C5
:1019B000070A0A090100345800BCC282828282826E
:1019C000070B0B090100201008007C8282828282B2
:1019D0007C070B0B090100081020007C82828282A8
:1019E000827C070B0B090100102844007C82828254
:1019F00082827C070A0A0901003458007C828282B4
:101A000082827C070A0A0901002828007C828282DF
:101A100082827C07090909010010381000FE0010BD
:101A200038100709090901FF027C8A8A92A2A27C68
:101A300080070B0B09010040201000828282828205
:101A4000867A070B0B09010008102000828282822F
:101A500082867A070B0B09010010284400828282DB
:101A60008282867A070A0A09010028280082828277
:101A70008282867A070E0E0901FD04081000424298
:101A80002424241818109060070B0B0901FE808095
:101A9000B8C4828282C4B88080070D0D0901FD247C
:101AA000240042422424241818109060000C0D00D9
:101AB000FE07022603BC017FFE08FE08FE0508089B
:101AC00006000040F0C888889878100508080600CD
:101AD00000C0F88888888888F80505050600012078
:101AE00030F830200508080600002070F82020207B
:101AF00020E00509090600FF2070A8A8B8888870B2
:101B000020050606060001E08CEA8C8A0A05090910
:101B10000600FFF8A88888888888A8F8050A0A06B9
:101B200000FE205050505088A8A888700303030678
:101B3000000340A040FFFFFFFFFFFFFFFFFFFFFF8D
:101B4000FFFFFFFFFFFFFFFFFFFFFF000000060595
:101B5000FF01070706020080808080800080030369
:101B600003060105A0A0A005060606000050F850D7
:101B700050F8500509090600FF2070A8A07028A899
:101B80007020050707060000C8C810204098980577
:101B9000070706000040A0A040A8906801030306C4
:101BA00002058080800309090601FF2040408080F3
:101BB000804040200309090601FF8040402020208A
:101BC00040408005070706000020A8702070A8206C
:101BD0000505050600012020F82020020303060168
:101BE000FFC04080050101060003F8020202060161
:101BF00000C0C00507070600000810102040408004
:101C0000050707060000708898A8C88870030707B2
:101C100006010040C040404040E0050707060000C4
:101C2000708808102040F8050707060000F8081023
:101C30003008887005070706000010305090F81033
:101C400010050707060000F880F0080888700507EF
:101C500007060000304080F08888700507070600FE
:101C600000F80810102020200507070600007088E3
:101C700088708888700507070600007088887808D3
:101C80001060020505060100C0C000C0C0020606C3
:101C90000601FFC0C000C040800305050601012009
:101CA00040804020050303060002F800F803050504
:101CB000060101804020408005070706000070886B
:101CC00010202000200507070600007088B8A8B87B
:101CD0008070050707060000708888F888888805E6
:101CE0000707060000F04848704848F00507070657
:101CF000000070888080808870050707060000F06B
:101D00004848484848F0050707060000F88080F07A
:101D10008080F8050707060000F88080F08080804A
:101D200005070706000070888080988870050707FF
:101D3000060000888888F88888880307070601005D
:101D4000E04040404040E005070706000038101022
:101D5000101090600507070600008890A0C0A090B2
:101D600088050707060000808080808080F80507CE
:101D70000706000088D8A888888888050707060015
:101D8000008888C8A898888805070706000070881A
:101D90008888888870050707060000F08888F0802A
:101DA000808005070706000070888888A89068056D
:101DB0000707060000F08888F0A09088050707064E
:101DC000000070888070088870050707060000F81A
:101DD000202020202020050707060000888888880A
:101DE000888870050707060000888888885050207A
:101DF00005070706000088888888A8A850050707F7
:101E000006000088885020508888050707060000D3
:101E100088885020202020050707060000F80810B9
:101E2000204080F80309090601FFE080808080805F
:101E30008080E00507070600008040402010100861
:101E40000309090601FFE020202020202020E005D2
:101E500003030600052050880501010600FEF80373
:101E600003030601058040200505050600007008F3
:101E70007888780507070600008080F0888888F059
:101E800005050506000070808088700507070600BC
:101E9000000808788888887805050506000070889D
:101EA000F08070050707060000304840E0404040E1
:101EB0000507070600FE7088888878087005070700
:101EC0000600008080F088888888030707060100E4
:101ED0004000C0404040E00409090601FE10003007
:101EE0001010101090600507070600008080889091
:101EF000E09088030707060100C04040404040E0F2
:101F0000050505060000D0A8A8A8A8050505060037
:101F100000B0C88888880505050600007088888894
:101F2000700507070600FEF0888888F080800507A6
:101F3000070600FE788888887808080505050600E9
:101F400000B0C88080800505050600007880700814
:101F5000F00507070600002020F8202020180505BE
:101F60000506000088888898680505050600008831
:101F7000888850200505050600008888A8A8500517
:101F8000050506000088502050880507070600FE5A
:101F900088888850204080050505060000F810203C
:101FA00040F80309090601FF2040404080404040BE
:101FB000200109090602FF80808080808080808067
:101FC0000309090601FF8040404020404040800551
:101FD000030306000248A890FF00FE0003FF8007ED
:101FE000C7C00701E00000E00000F000007004003E
:101FF000700E00701F00703F80F00E00E00F01E0D7
:1020000007C7C003FF8000FE0000FE0003FF80073B
:10201000C7C00F01E00E00E03F80F01F00700E000F
:10202000700400700000700000F00000E00701E0A4
:1020300007C7C003FF8000FE000E000E000E000E5A
:10204000000E000E000E000E007FC03F801F000E2D
:1020500000040004000E001F003F807FC00E000E31
:10206000000E000E000E000E000E000E00FFFFFF1F
:102070007F80FFC0FFC0FFC07F807F80FFC0FFC0A8
:10208000FFC03F001E000C0052756E6F7574204437
:10209000697374206D6D004C6F6164206D6D005527
:1020A0006E6C6F6164206D6D0046696C2E20446912
:1020B000612E004520696E206D6DC2B3004D333036
:1020C0003320553120452569205325690050494466
:1020D000204175746F74756E65202A005049442D37
:1020E00044202A005049442D49202A005049442DBB
:1020F00050202A0020082046616374002008204DEB
:102100006178002008204D696E004175746F746518
:102110006D7000416476616E63656420536574740C
:10212000696E677300556E526574205600556E5285
:102130006574206D6D00486F70206D6D0052657480
:10214000726163742020560052657472616374205A
:102150006D6D004175746F526574722E0052657317
:10216000746F72652044656661756C7473004C6FA2
:1021700061642053657474696E67730053746F7281
:10218000652053657474696E677300507265686585
:1021900061742041425320436F6E6600507265683F
:1021A00065617420504C4120436F6E66004361733B
:1021B00065204C6967687400424C546F7563680011
:1021C0004D3139305337350A4732380A4732390AE8
:1021D0004D3430300A4D313039533231350A4732BF
:1021E000380A4D34323053310A4731583130305982
:1021F00031303046353030300A47315A300A4D35AB
:1022000030300A4D31313720536574205A204F66E3
:1022100066736574004732380A4731583230305996
:102220003230305A350A4D313036533132380A4D5A
:102230003330334338533231354530550A4D35301C
:10224000300A4D313137205049442054756E652095
:10225000446F6E65004D3330334334533735452D6D
:1022600031550A4D3530300A4D313137205049440F
:102270002054756E6520446F6E65004D31393053C2
:1022800037350A4D313034533231350A4732380A46
:102290004732394C310A47312058313030593130CA
:1022A0003046353030300A47315A30004D35303005
:1022B0000A4D3131372053657474696E677320534A
:1022C000746F726564005072657020666F72205A78
:1022D0002041646A7573740050494420426564006B
:1022E00052756E204D6573682056616C6964617427
:1022F000696F6E0050494420486F74656E640053E6
:10230000657475700024F4D43050C38E20C2A2408E
:1023100017828B7011127A910D816CD90AA861E134
:1023200008C7586607615143061E4B5D05C145A7A6
:10233000041A411104093D9803713931034036DB19
:102340000265339102D4305402802E1D02632CEEBC
:1023500001752AC501B028A001102781018F2564CD
:10236000012B244B01E0223401AC211F018D200DF3
:1023700001801FFC00841EED00971DDF00B81CD2F9
:1023800000E61BC600201BBC00641AB200B219A8EC
:10239000000A19A0006A189900D117910040178B04
:1023A00000B516840031167E00B31579003A157316
:1023B00000C7146F0058146A00EE13660088136398
:1023C0000025135E00C7125B006C125700151254F3
:1023D00000C111510070114F0021114B00D610495E
:1023E000008D1047004610440002104200C00F400C
:1023F00000800F3E00420F3C00060F3B00CB0E3822
:1024000000930E37005C0E3500270E3400F30D32BA
:1024100000C10D3100900D3000600D2E00320D2DE9
:1024200000050D2C00D90C2B00AE0C2900850C29C1
:10243000005C0C2700350C27000E0C2600E80B244E
:1024400000C40B2400A00B23007D0B23005A0B219A
:1024500000390B2100180B2000F80A1F00D90A1EB2
:1024600000BB0A1E009D0A1D00800A1D00630A1C95
:1024700000470A1B002C0A1B00110A1A00F7091A50
:1024800000DD091900C4091900AB091900920917E8
:10249000007B091800630917004C0916003609165D
:1024A00000200916000A091500F5081500E00814B7
:1024B00000CC081400B8081400A4081400900813F5
:1024C000007D0812006B081300580812004608121D
:1024D000003408110023081100120811000108112E
:1024E00000F0071000E0071000D0071000C0071030
:1024F00000B0070F00A107100091070E0083070F1F
:102500000074070F0065070E0057070E0049070EFD
:10251000003B070D002E070E0020070D0013070DCE
:102520000006070D00F9060C00ED060D00E0060C94
:1025300000D4060C00C8060C00BC060C00B0060C4B
:1025400000A4060B0099060C008D060B0082060BFA
:102550000077060B006C060B0061060A0057060B9D
:10256000004C060A0042060A0038060A002E060A37
:102570000024060A001A060A001006090007060AC7
:1025800000FD050900F4050900EB050900E2050955
:1025900000D9050900D0050900C7050900BE0509D5
:1025A00000B5050800AD050800A50509009C050853
:1025B00000940508008C050800840508007C0508C7
:1025C00000740508006C050700650508005D050737
:1025D00000560508004E050700470507004005089E
:1025E0000038050700310507002A05070023050705
:1025F000001C050600160507000F05070008050664
:102600000002050700FB040600F5040700EE0406BF
:1026100000E8040600E2040700DB040600D5040617
:1026200000CF040600C9040600C3040600BD04066A
:1026300000B7040600B1040500AC040600A60406B9
:1026400000A00405009B0406009504050090040604
:10265000008A04050085040500800406007A04054C
:102660000075040500700405006B04050066040590
:1026700000610405005C04050057040500520405D0
:10268000004D04050048040500430405003E040411
:10269000003A04050035040500300404002C04054C
:1026A0000027040400230405001E0404001A040487
:1026B0000016040500110404000D040400090405BB
:1026C000000404040000040400FC030400F80304F4
:1026D00000F4030400F0030400EC030400E8030426
:1026E00000E4030400E0030400DC030400D8030456
:1026F00000D4030400D0030400CC030400C8030387
:1027000000C503030024F404D9201BC40C5C0E98FC
:1027100004C4095F0265077101F405F900FB04B305
:102720000048048700C103690058035500030345AE
:1027300000BE023A008402310053022A0029022519
:102740000004022000E4011C00C8011900AF0117B9
:102750000098011400840113007101100061011040
:102760000051010E0043010D0036010B002B010B3F
:102770000020010B00150109000C010900030108EC
:1027800000FB000800F3000800EB000700E400066F
:1027900000DE000600D8000600D2000600CC0005CE
:1027A00000C7000500C2000500BD000400B9000418
:1027B00000B5000400B1000400AD000400A900044D
:1027C00000A5000300A20003009F0004009B00037B
:1027D000009800030095000200930003009000039E
:1027E000008D0002008B00030088000200860002BA
:1027F0000084000300810002007F0002007D0002CF
:10280000007B0002007900020077000100760002E0
:10281000007400020072000100710002006F0002EB
:10282000006D0001006C0002006A000100690002F6
:1028300000670001006600010065000100640002FD
:10284000006200010061000100600001005F000201
:10285000005D0001005C0001005B0001005A000106
:102860000059000100580001005700010056000106
:102870000055000100540001005300000053000106
:10288000005200010051000100500001004F000102
:10289000004E0000004E0001004D0001004C000100
:1028A000004B0000004B0001004A000100490001FC
:1028B00000480000004800010047000100460000F9
:1028C00000460001004500000045000100440001F1
:1028D00000430000004300010042000000420001EC
:1028E000004100000041000100400001003F0000E5
:1028F000003F0001003E0000003E0001003D0000DE
:10290000003D0001003C0000003C0000003C0001D4
:10291000003B0000003B0001003A0000003A0001CB
:1029200000390000003900010038000000380000C4
:1029300000380001003700000037000100360000B9
:1029400000360000003600010035000000350000B0
:1029500000350001003400000034000000340001A4
:10296000003300000033000000330001003200009B
:102970000032000000320001003100000031000090
:102980000031000100300000003000000030000184
:10299000002F0000002F0000002F0000002F00017A
:1029A000002E0000002E0000002E0001002D00006F
:1029B000002D0000002D0000002D0001002C000063
:1029C000002C0000002C0000002C0001002B000057
:1029D000002B0000002B0000002B0001002A00004B
:1029E000002A0000002A0000002A0001002900003F
:1029F0000029000000290000002900000029000132
:102A00000028000000280000002800000028000026
:102A10000028000100270000002700000027000018
:102A2000002700000027000100260000002600000B
:102A300000260000002600000026000100250000FE
:102A400000250000002500000025000000250000F2
:102A500000250001002400000024000000240000E4
:102A600000240000002400010023000000230000D7
:102A700000230000002300000023000000230000CA
:102A800000230001002200000022000000220000BC
:102A900000220000002200000022000100210000AE
:102AA00000210000002100000021000000210000A2
:102AB0000021000000210001002000000020000093
:102AC0000020000000200000002000000020000086
:102AD0000020000000200001001F0000001F000077
:102AE000001F0000001F0000001F0000001F00006A
:102AF000001F0001001E0000001E0000001E00005C
:102B0000001E000000393000003325000087190046
:102B100000B00F0000DB080000BD040000740200DC
:102B2000003F01000052756E6F75742053656E731F
:102B30006F7200554E4C4F41442046494C414D4523
:102B40004E540046494C414D454E54204348414E59
:102B50004745004F7574616765205265636F766500
:102B6000727900436F6E66696775726174696F6E22
:102B7000004D37303220542564004D36303020422D
:102B80003020542564004D373032203B2564004D01
:102B900037303120542564004D373032004D373006
:102BA00031004D363030204230005075726765205C
:102BB0006D6F726500524553554D45204F50544935
:102BC0004F4E533A005052494E54205041555345B0
:102BD000440020204E6F7A7A6C653A20004D3130E7
:102BE00030300053746F70205072696E74005265FB
:102BF00073756D65205072696E74004D32310043FB
:102C000068616E6765204D65646961004C65766535
:102C10006C696E6720546F6F6C73004C61736572E2
:102C200020436F6E74726F6C004E6F204D65646947
:102C3000610054756E6500496E666F20536372655E
:102C4000656E005061726B696E672E2E2E0000005B
:102C50005761697420666F720066696C616D656E9C
:102C600074206368616E676500746F2073746172AD
:102C700074005761697420666F720066696C616DDB
:102C8000656E7420756E6C6F616400004E6F7A7AA9
:102C90006C652068656174696E6700506C6561736E
:102CA0006520776169742E2E2E0000507265737353
:102CB00020627574746F6E00746F20686561742093
:102CC0006E6F7A7A6C650000496E73657274206667
:102CD000696C616D656E7400616E642070726573FD
:102CE0007320627574746F6E00746F20636F6E74FE
:102CF000696E7565005761697420666F7200666958
:102D00006C616D656E74206C6F616400005072655B
:102D1000737320427574746F6E00746F20726573E4
:102D2000756D65207072696E74000057616974205A
:102D3000666F72207072696E7400746F20726573B2
:102D4000756D652E2E2E00005761697420666F72B6
:102D50000066696C616D656E7420707572676500E0
:102D6000002062797465733B2063726320005365B1
:102D70007474696E67732053746F726564202800E1
:102D8000454550524F4D206461746173697A6520E6
:102D90006572726F722E0A002073746F7265642000
:102DA00073657474696E6773207265747269657691
:102DB0006564202800202863616C63756C6174650C
:102DC0006429210A0020213D2000454550524F4DE5
:102DD00020435243206D69736D61746368202D2018
:102DE0002873746F726564292000496E6465783AAF
:102DF0002000204D61726C696E3D563736290A00FD
:102E0000454550524F4D2076657273696F6E206D47
:102E100069736D617463682028454550524F4D3D7C
:102E200000454550524F4D20496E697469616C6987
:102E30007A65640A0048617264636F646564204463
:102E4000656661756C742053657474696E67732070
:102E50004C6F616465640A003B20000000000000C4
:102E60000000000000000000009643000016430030
:102E700000A04000008C420000A0420000A04200E0
:102E80000048440000C042F40100002C0100009002
:102E9000010000A00F000050617573652050726939
:102EA0006E74004D656469612052656D6F7665646E
:102EB000004D6564696120496E73657274656400D4
:102EC0006E6F74696669636174696F6E2000636117
:102ED0006E63656C005072696E742041626F72742B
:102EE0006564004469736D697373005549204162DC
:102EF0006F72746564004D323520500A4D323400D3
:102F0000526573756D650055492050617573650094
:102F1000726573756D650001FFFFFFFFFFFFFFFF27
:102F2000FFFFFFFFFF0FFFFFFFFFFFFFFFFFFFFFA1
:102F3000FFFFFF1E0000000000000000000007FF70
:102F4000FF380000000000000000000003FFFF70D9
:102F50000000000000000000000001FFFF60000012
:102F6000000000000000000000FFFF600000000003
:102F7000000000000000007FFFC000000000000013
:102F800000007800003FFFC00FC0FC000000000000
:102F90007818001FFFC03FE1FF0000000000783CF0
:102FA000000FFFC07FF3FF8000000000783C0007A7
:102FB000FFC0FFFFFFC000000000783C0003FFC11E
:102FC000F87F87E00000000078000001FFC1F03FBB
:102FD00003E00000000078000000FFC1E01E01E0F7
:102FE0001F0003E0783C03F07FC1E01E01E07FC0DA
:102FF0000FF8783C07FC3FC1E01E01E1FFE01FFC39
:10300000783C0FFE1FC1E01E01E3FFF03FFE783C5D
:103010001FFE0FC1E01E01E3F3F83F3E783C3F3F47
:1030200007C1E01E01E7E0FC7C1F783C3E1F07C1A2
:10303000E01E01E7C07C7C0F783C3C0F03C1E01E22
:1030400001E7807C780F783C3C0F03C1E01E01E76C
:10305000803C7800783C3C0F03C1E01E01E7803CD7
:103060007800783C3C0F03C1E01E01E7803C78000B
:10307000783C3C0F03C1E01E01E7C03C7800783C7F
:103080003C0F03C1E01E01E3E03C78007C3C3C0FB8
:1030900003C1E01E01E3FF3FF8007FBC3C0F03C10A
:1030A000E01E01E1FF3FF8003FBFFC0F03C1E01E3F
:1030B00001E0FF3FF8001FBFFC0F03C1E01E01E06D
:1030C0007F3FF8000FBFFC0F03600000000000000E
:1030D0000000000000000760000000000000000089
:1030E000000000000670000000000000000000006A
:1030F00000000E380000000000000000000000008A
:103100001C1E000000000000000000000000780FFE
:10311000FFFFFFFFFFFFFFFFFFFFFFFFF001FFFFCC
:10312000FFFFFFFFFFFFFFFFFFFF8001FFFFFFFF2C
:10313000FFFFFFFFFFFFFFFFFF0FFFFFFFFFFFFF8F
:10314000FFFFFFFFFFFFFF1E000000000000000068
:10315000000007FFFF380000000000000000000032
:1031600003FFFF700000000000000000000001FFEE
:10317000FF600000000000000000000000FFFF6092
:1031800000000000000000000000007FFFC0000001
:103190000000000000007800003FFFC00FC0FC00EE
:1031A000000000007818001FFFC03FE1FF00000092
:1031B0000000783C000FFFC07FF3FF80000000009C
:1031C000783C0007FFC0FFFFFFC000000000783C14
:1031D0000003FFC1F87F87E00000000078000001D5
:1031E000FFC1F03F03E00000000078000000FFC1D5
:1031F000E01E01E01F0003E0783C00007FC1E01EFC
:1032000001E07FC00FF8783C00003FC1E01E01E103
:10321000FFE01FFC783C00001FC1E01E01E3FFF04F
:103220003FFE783C00000FC1E01E01E3F3F83F3E93
:10323000783C000007C1E01E01E7E0FC7C1F783C01
:10324000000007C1E01E01E7C07C7C0F783C000055
:1032500003C1E01E01E7807C780F783C000003C1C9
:10326000E01E01E7803C7800783C000003C1E01ECE
:1032700001E7803C7800783C000003C1E01E01E7D4
:10328000803C7800783C000003C1E01E01E7C03CB0
:103290007800783C000003C1E01E01E3E03C7800C8
:1032A0007C3C000003C1E01E01E3FF3FF8007FBC4F
:1032B000000003C1E01E01E1FF3FF8003FBF000036
:1032C00003C1E01E01E0FF3FF8001FBF000003C183
:1032D000E01E01E07F3FF8000FBF00000360000028
:1032E0000000000000000000000007600000000077
:1032F0000000000000000000067000000000000058
:103300000000000000000E38000000000000000077
:10331000000000001C1E0000000000000000000073
:103320000000780FFFFFFFFFFFFFFFFFFFFFFFFF22
:10333000F001FFFFFFFFFFFFFFFFFFFFFFFF800127
:10334000FFFFFFFFFFFFFFFFFFFFFFFFFF0FFFFF7D
:10335000FFFFFFFFFFFFFFFFFFFFFF1E000000005A
:1033600000000000000007FFFF3800000000000020
:103370000000000003FFFF700000000000000000DC
:10338000000001FFFF6000000000000000000000DE
:1033900000FFFF6000000000000000000000007F50
:1033A000FFC000000000000000007800003FFFC0E8
:1033B0000FC0FC00000000007800001FFFC03FE1CC
:1033C000FF00000000007800000FFFC07FF3FF80C7
:1033D0000000000078000007FFC0FFFFFFC00000F2
:1033E000000078000003FFC1F87F87E000000000C4
:1033F00078000001FFC1F03F03E00000000078000A
:103400000000FFC1E01E01E01F0003E078000000A3
:103410007FC1E01E01E07FC00FF8780000003FC1CF
:10342000E01E01E1FFE01FFC780000001FC1E01E6C
:1034300001E3FFF03FFE780000000FC1E01E01E352
:10344000F3F83F3E7800000007C1E01E01E7E0FC12
:103450007C1F7800000007C1E01E01E7C07C7C0FE4
:103460007800000003C1E01E01E7807C780F78003F
:10347000000003C1E01E01E7803C780078000000F6
:1034800003C1E01E01E7803C78007800000003C122
:10349000E01E01E7803C78007800000003C1E01ED8
:1034A00001E7C03C78007800000003C1E01E01E3A2
:1034B000E03C78007C00000003C1E01E01E3FF3F18
:1034C000F8007F00000003C1E01E01E1FF3FF800AB
:1034D0003F00000003C1E01E01E0FF3FF8001F00B5
:1034E000000003C1E01E01E07F3FF8000F00000074
:1034F0000360000000000000000000000000076002
:103500000000000000000000000000000670000045
:10351000000000000000000000000E380000000065
:1035200000000000000000001C1E00000000000061
:10353000000000000000780FFFFFFFFFFFFFFFFF0C
:10354000FFFFFFFFF001FFFFFFFFFFFFFFFFFFFF98
:10355000FFFF8001FFFFFFFFFFFFFFFFFFFFFFFFF8
:10356000FF0FFFFFFFFFFFFFFFFFFFFFFFFFFF1E3C
:103570000000000000000000000007FFFF3800000E
:10358000000000000000000003FFFF7000000000CA
:1035900000000000000001FFFF60000000000000CC
:1035A0000000000000FFFF600000000000000000BD
:1035B0000000007FFFC000000000000000000000CD
:1035C000003FFFC00FC0FC00000000000000001F13
:1035D000FFC03FE1FF00000000000000000FFFC03F
:1035E0007FF3FF800000000000000007FFC0FFFF26
:1035F000FFC00000000000000003FFC1F87F87E06B
:103600000000000000000001FFC1F03F03E00000E7
:10361000000000000000FFC1E01E01E01F0003E009
:10362000000000007FC1E01E01E07FC00FF8000035
:1036300000003FC1E01E01E1FFE01FFC00000000B0
:103640001FC1E01E01E3FFF03FFE000000000FC1BC
:10365000E01E01E3F3F83F3E0000000007C1E01E5A
:1036600001E7E0FC7C1F0000000007C1E01E01E74D
:10367000C07C7C0F0000000003C1E01E01E7807CDD
:10368000780F0000000003C1E01E01E7803C7800D5
:103690000000000003C1E01E01E7803C780000004C
:1036A000000003C1E01E01E7803C7800000000003C
:1036B00003C1E01E01E7C03C78000000000003C128
:1036C000E01E01E3E03C78000000000003C1E01EC2
:1036D00001E3FF3FF8000000000003C1E01E01E12C
:1036E000FF3FF8000000000003C1E01E01E0FF3FC3
:1036F000F8000000000003C1E01E01E07F3FF80079
:103700000000000003600000000000000000000056
:103710000000076000000000000000000000000042
:1037200006700000000000000000000000000E38DD
:103730000000000000000000000000001C1E00004F
:1037400000000000000000000000780FFFFFFFFFF6
:10375000FFFFFFFFFFFFFFFFF001FFFFFFFFFFFF86
:10376000FFFFFFFFFFFF8001FFFFFFFFFFFFFFFFE6
:10377000FFFFFFFFFF0FFFFFFFFFFFFFFFFFFFFF49
:10378000FFFFFF1E0000000000000000000007FF18
:10379000FF380000000000000000000003FFFF7081
:1037A0000000000000000000000001FFFF600000BA
:1037B000000000000000000000FFFF6000000000AB
:1037C000000000000000007FFFC0000000000000BB
:1037D00000000000003FFFC00FC0FC000000000020
:1037E0000000001FFFC03FE1FF00000000000000DC
:1037F000000FFFC07FF3FF80000000000000000703
:10380000FFC0FFFFFFC00000000000000003FFC179
:10381000F87F87E00000000000000001FFC1F03FDA
:1038200003E00000000000000000FFC1E01E01E016
:103830001F000000000000007FC1E01E01E07FC00B
:103840000000000000003FC1E01E01E1FFE00000B9
:10385000000000001FC1E01E01E3FFF000000000B7
:1038600000000FC1E01E01E3F3F8000000000000BB
:1038700007C1E01E01E7E0FC00000000000007C1F6
:10388000E01E01E7C07C00000000000003C1E01E54
:1038900001E7807C00000000000003C1E01E01E79A
:1038A000803C00000000000003C1E01E01E7803CF6
:1038B00000000000000003C1E01E01E7803C0000A2
:1038C0000000000003C1E01E01E7C03C0000000052
:1038D000000003C1E01E01E3E03C00000000000026
:1038E00003C1E01E01E3FF3F00000000000003C130
:1038F000E01E01E1FF3F00000000000003C1E01EE8
:1039000001E0FF3F00000000000003C1E01E01E0F5
:103910007F3F000000000000036000000000000086
:103920000000000000000760000000000000000030
:103930000000000006700000000000000000000011
:1039400000000E3800000000000000000000000031
:103950001C1E000000000000000000000000780FA6
:10396000FFFFFFFFFFFFFFFFFFFFFFFFF001FFFF74
:10397000FFFFFFFFFFFFFFFFFFFF8001FFFFFFFFD4
:10398000FFFFFFFFFFFFFFFFFF0FFFFFFFFFFFFF37
:10399000FFFFFFFFFFFFFF1E000000000000000010
:1039A000000007FFFF3800000000000000000000DA
:1039B00003FFFF700000000000000000000001FF96
:1039C000FF600000000000000000000000FFFF603A
:1039D00000000000000000000000007FFFC00000A9
:1039E0000000000000000000003FFFC00FC0FC000E
:1039F000000000000000001FFFC03FE1FF000000CA
:103A000000000000000FFFC07FF3FF8000000000F7
:103A100000000007FFC0FFFFFFC000000000000023
:103A20000003FFC1F87F87E00000000000000001F4
:103A3000FFC1F03F03E00000000000000000FFC1F4
:103A4000E01E01E000000000000000007FC1E01E59
:103A500001E000000000000000003FC1E01E01E0A6
:103A600000000000000000001FC1E01E01E0000097
:103A70000000000000000FC1E01E01E00000000097
:103A80000000000007C1E01E01E00000000000008F
:103A9000000007C1E01E01E000000000000000007F
:103AA00003C1E01E01E0000000000000000003C1AF
:103AB000E01E01E0000000000000000003C1E01E65
:103AC00001E0000000000000000003C1E01E01E072
:103AD000000000000000000003C1E01E01E0000043
:103AE00000000000000003C1E01E01E00000000033
:103AF0000000000003C1E01E01E000000000000023
:103B0000000003C1E01E01E0000000000000000012
:103B100003C1E01E01E0000000000000000003C13E
:103B2000E01E01E000000000000000000360000053
:103B3000000000000000000000000760000000001E
:103B400000000000000000000670000000000000FF
:103B50000000000000000E3800000000000000001F
:103B6000000000001C1E000000000000000000001B
:103B70000000780FFFFFFFFFFFFFFFFFFFFFFFFFCA
:103B8000F001FFFFFFFFFFFFFFFFFFFFFFFF8001CF
:103B9000FFFFFFFFFFFFFFFFFFFFFFFFFF0FFFFF25
:103BA000FFFFFFFFFFFFFFFFFFFFFF1E0000000002
:103BB00000000000000007FFFF38000000000000C8
:103BC0000000000003FFFF70000000000000000084
:103BD000000001FFFF600000000000000000000086
:103BE00000FFFF6000000000000000000000007FF8
:103BF000FFC000000000000000000000003FFFC008
:103C000000000000000000000000001FFFC00000D6
:103C10000000000000000000000FFFC000000000D6
:103C20000000000000000007FFC0000000000000CE
:103C3000000000000003FFC00000000000000000C2
:103C400000000001FFC000000000000000000000B4
:103C50000000FFC0000000000000000000000000A5
:103C60007FC00000000000000000000000003FC016
:103C70000000000000000000000000001FC0000065
:103C8000000000000000000000000FC00000000065
:103C9000000000000000000007C00000000000005D
:103CA00000000000000007C000000000000000004D
:103CB0000000000003C00000000000000000000041
:103CC000000003C000000000000000000000000031
:103CD00003C000000000000000000000000003C05E
:103CE00000000000000000000000000003C0000011
:103CF0000000000000000000000003C00000000001
:103D0000000000000000000003C0000000000000F0
:103D100000000000000003C00000000000000000E0
:103D20000000000003C000000000000000000000D0
:103D3000000003C0000000000000000000000000C0
:103D400003600000000000000000000000000760A9
:103D500000000000000000000000000006700000ED
:103D6000000000000000000000000E38000000000D
:103D700000000000000000001C1E00000000000009
:103D8000000000000000780FFFFFFFFFFFFFFFFFB4
:103D9000FFFFFFFFF001FFFFFFFFFFFFFFFFFFFF40
:103DA000FFFF80FFFFFFFFFFFFFFFFFFFFFFFFFFA2
:103DB000FFFFFFFFFFFFFFFFFFFFFFFFFFFFFFFF13
:103DC000FFFFFFFFFFFFFFFFFFFFFFFFFFFFFFFF03
:103DD000FFFFFFFFFFFFFFFFFFFFFFFFFFFFFFFFF3
:103DE000FFFFFFFFFFFFFFFFFFFFFFFFFFFFFFFFE3
:103DF000FFFFFFFFFFFFFFFFFFFFFFFFFFFFFFFFD3
:103E0000FFFFFFFD55555555555FFFFFFFFFFFFFB6
:103E1000FFFFFFFE00000000003FFFFFFFFFFFFF6E
:103E2000FFFFFFFD000007FFFFFFFFFFFFFFFFFF9A
:103E3000FFFFFFFE07C00555555555555FFFFFFFB6
:103E4000FFFFFFFC0A200600000000003FFFFFFF0D
:103E5000FFFFFFFE141005000007FFFFFFFFFFFF3D
:103E6000FFFFFFFC28080607C00555555555555F4F
:103E7000FFFFFFFE5404040A200600000000003F7C
:103E8000FFFFFFFC600406141005000007FFFFFFA2
:103E9000FFFFFFFE50040428080607C005555555CE
:103EA00055555FFC6004065404040A200600000017
:103EB00000003FFE54041C600406141005000000BE
:103EC00000001FFC28082E50040428080607C00024
:103ED00001F03FFE1410546004065404040A20004C
:103EE00002081FFC0A206654041C6004061410001B
:103EF00005043FFE07C05428082E5004042808007B
:103F00000A021FFC00002E14105460040654040022
:103F100015013FFE00001C0A206654041C600400CA
:103F200018011FFC00000607C05428082E5004008A
:103F300014013FFE00000400002E14105460040021
:103F400018011FFCFFFFFE00001C0A206654041C21
:103F500015013FFED5555400000607C05428082A15
:103F60000A021FFC84104600000400002E141051A9
:103F700005043FFEC41044FFFFFE00001C0A206140
:103F800002881FFC841046D5555400000607C05116
:103F900001F03FFE84104484104600000400002A13
:103FA00000001FFCC41046C41044FFFFFE00001CAC
:103FB00000003FFE841044841046D5555400000094
:103FC00000001FFCD55556841044841046000000A4
:103FD00000003FFCFFFFFCC41046C41044FFFFFF7D
:103FE000FFFF9FFE000006841044841046D55555FF
:103FF0005555BFFD555554D5555684104484104130
:1040000004109FFFFFFFFCFFFFFCC41046C41041DB
:104010000411BFFFFFFFFE0000068410448410411E
:1040200004109FFFFFFFFD555554D5555684104190
:1040300004109FFFFFFFFFFFFFFCFFFFFCC41041C8
:104040000411BFFFFFFFFFFFFFFE000006841041C9
:1040500004109FFFFFFFFFFFFFFD555554D5555539
:104060005555BFFFFFFFFFFFFFFFFFFFFCFFFFFFF7
:10407000FFFF9FFFFFFFFFFFFFFFFFFFFE000000AE
:1040800000003FFFFFFFFFFFFFFFFFFFFD555555FE
:1040900055555FFFFFFFFFFFFFFFFFFFFFFFFFFF24
:1040A000FFFFFFFFFFFFFFFFFFFFFFFFFFFFFFFF20
:1040B000FFFFFFFFFFFFFFFFFFFFFFFFFFFFFFFF10
:1040C000FFFFFFFFFFFFFFFFFFFFFFFFFFFFFFFF00
:1040D000FFFFFFE02EFB7DFBFBCFC1DFBB3EC0E15E
:1040E000FE3C1FFDEE7B39F9F3CF9EDFBB3EDFDEEA
:1040F000FCDDE7FDEE3BBBF9EBD7BF5FBB5EDFDE70
:10410000FDEDF7FDEEBBD3FAEBB73FDFBB4EDFDFD4
:10411000FFCDF3FDEEDBC7FAEBBB7FC03B6EC0E328
:10412000FF1DF3FDEECBEFFADBBB7FDFBB66DFF8F5
:10413000FFCDF3FDEEEBEFFB5B033F5FBB76DFFEF6
:104140007FEDF3FDEEF3EFFB5B79BEDFBB7ADFDEE5
:104150007DEDF7FDEEF3EFFBBAFD9EDFBB7CDFDE0E
:10416000FDCDE7FDEEFBEFFBBAFDC1DFBB7EC0E09E
:10417000FE1C1FFFFFFFFFFFFFFFFFFFFFFFFFFF13
:10418000FFFFFFFFFFFFFFFFFFFFFFFFFFFFFFFF3F
:10419000FFFFFFFFFFFFFFFFFFFFFFFFFFFFFFFF2F
:1041A000FFFFFF8F3B7B39673753353F332B311789
:1041B0002F02687474703A2F2F6D61726C696E668D
:1041C000772E6F726700322E302E355F52313000FD
:1041D0004D3130303020530070726F6D70745F005D
:1041E0002020506C616E6E65724275666665724223
:1041F000797465733A20002046726565204D656DBF
:104200006F72793A2000436F6D70696C65643A2073
:1042100041707220313920323032300A00204C6136
:10422000737420557064617465643A2032303230A2
:104230002D30332D3235207C20417574686F723AF1
:104240002054696E796D616368696E657333440AE1
:1042500000322E302E355F5231300A004D61726CC3
:10426000696E0020536F66747761726520526573C2
:1042700065740A00205761746368646F6720526533
:104280007365740A002042726F776E206F75742018
:1042900052657365740A002045787465726E616CAE
:1042A0002052657365740A00506F77657255700A05
:1042B000006175746F25632E67004731583530599A
:1042C00035300A4D383400446F6E65207072696E67
:1042D00074696E672066696C650A004D3737004D5A
:1042E0003331006572726F722077726974696E671C
:1042F00020746F2066696C650A00446F6E652073D8
:104300006176696E672066696C652E0A004D3239E8
:104310000025532025632025632025632025630085
:10432000656E6473746F7073206869743A2000203E
:10433000520020204D363033200020204D343132C1
:1043400020530046696C616D656E742072756E6FE6
:1043500075742073656E736F723A0020550046695C
:104360006C616D656E74206C6F61642F756E6C6F1F
:104370006164206C656E677468733A0020204D3864
:1043800035312058005A2D50726F6265204F666695
:104390007365740020204D3230392053004175740C
:1043A0006F2D526574726163743A20533D302074EE
:1043B0006F2064697361626C652C203120746F20FA
:1043C000696E7465727072657420452D6F6E6C79BC
:1043D000206D6F76657320617320726574726163FE
:1043E000742F7265636F7665720020204D3230380D
:1043F0002053005265636F7665723A20533C6C65BA
:104400006E6774683E20463C756E6974732F6D3E0E
:104410000020570020204D32303720530052657461
:10442000726163743A20533C6C656E6774683E2019
:10443000463C756E6974732F6D3E205A3C6C6966FC
:10444000743E0020204D343133205300506F776587
:10445000722D4C6F7373205265636F766572793A73
:104460000020204D33303420500020204D33303197
:104470002050005049442073657474696E67733A24
:104480000020460020480020204D313435205300C4
:104490004D6174657269616C206865617475702026
:1044A000706172616D65746572733A0020204732E5
:1044B00039205720490020204D343230205300410C
:1044C00075746F20426564204C6576656C696E6713
:1044D0003A0020204D323036205800486F6D65205C
:1044E0006F66667365743A00204A0020204D3230B2
:1044F00035204200416476616E6365643A20423C37
:104500006D696E5F7365676D656E745F74696D6507
:104510005F75733E20533C6D696E5F6665656472BE
:104520006174653E20543C6D696E5F74726176659E
:104530006C5F66656564726174653E204A3C6A75AD
:104540006E635F6465763E0020204D32303420502B
:1045500000416363656C65726174696F6E202875D4
:104560006E6974732F7332293A20503C7072696EF1
:10457000745F616363656C3E20523C726574726166
:1045800063745F616363656C3E20543C7472617652
:10459000656C5F616363656C3E0020204D32303195
:1045A0002058004D6178696D756D20416363656CBD
:1045B00065726174696F6E2028756E6974732F73EC
:1045C00032293A0020204D3230332058004D617896
:1045D000696D756D20666565647261746573202808
:1045E000756E6974732F73293A0053746570732064
:1045F00070657220756E69743A0020204D3230303B
:104600002044300A0020204D323030204400204425
:10461000697361626C65640A0046696C616D656E00
:10462000742073657474696E67733A0020204D318D
:1046300034392043203B20556E69747320696E2005
:1046400043656C736975730A0020286D6D2900201D
:1046500020473231202020203B20556E6974732082
:10466000696E206D6D00486F6D696E6720466169E7
:104670006C6564006F70656E00545249474745523F
:1046800045440066696C616D656E74007A5F6D69A2
:104690006E00795F6D617800785F6D696E005265BC
:1046A000706F7274696E6720656E6473746F7020CA
:1046B0007374617475730A000080C0430000C843BE
:1046C0000000FA43000000000000C84300000000A2
:1046D00000004842000048420000804002020400FE
:1046E00000A0400000A04000000040FF01FF0000CB
:1046F0000001000000010000800055555500000039
:10470000400033333300AAAA2A0049922400000053
:104710002000C7711C0099991900D1451700555503
:1047200015003BB1130024491200111111000000C3
:1047300010000F0F0F00E3380E0043790D00CCCCB2
:104740000C00C3300C00E8A20B0064210B00AAAAE5
:104750000A00703D0A009DD80900427B090092249E
:104760000900DCD308008888080010420800000017
:104770000800F0C107008787070075500700711C0B
:1047800007003EEB0600A1BC0600699006006666C5
:104790000600703E06006118060017F4050074D18B
:1047A00005005BB00500B29005006272050055552A
:1047B000050078390500B81E0500050505004EEC1A
:1047C000040087D40400A1BD040090A7040049920E
:1047D0000400C17D0400EE690400C756040044448F
:1047E00004005C32040008210400411004000000B1
:1047F00004003FF00300F8E0030026D20300C3C327
:104800000300CCB503003AA803000A9B0300388ECE
:104810000300C08103009F750300D0690300505E50
:1048200003001D53030034480300913D030033335C
:10483000030016290300381F030097150300300CEE
:104840000300030303000BFA020049F10200BAE877
:1048500002005CE002002DD802002DD0020059C8F1
:104860000200B0C0020031B90200DAB10200AAAA07
:104870000200A0A30200BC9C0200FA9502005C8F1B
:104880000200DF88020082820200457C0200277657
:10489000020027700200436A02007C640200D05EBE
:1048A00002003F590200C8530200FFFDFCFAF8F66F
:1048B000F4F2F0EEECEAE9E7E5E3E1E0DEDCDAD998
:1048C000D7D5D4D2D0CFCDCBCAC8C7C5C3C2C0BF3D
:1048D000BDBCBAB9B7B6B4B3B2B0AFADACAAA9A8B3
:1048E000A6A5A4A2A1A09E9D9C9A99989795949301
:1048F00092908F8E8D8B8A8988878684838281802F
:104900007F7E7D7B7A797877767574737271706F3C
:104910006E6D6C6B6A696867666564636261605F2F
:104920005E5D5C5B5A595858575655545352515016
:10493000504F4E4D4C4B4A4A4948474646454443E2
:10494000424241403F3E3E3D3C3B3B3A393838379E
:10495000363535343332323130302F2E2E2D2C2B4C
:104960002B2A2929282727262525242323222121EC
:1049700020201F1E1E1D1C1C1B1B1A19191818177E
:104980001616151514131312121111100F0F0E0E07
:104990000D0D0C0C0B0A0A09090808070706060585
:1049A000050404030302020100005761726E696E80
:1049B000673A20486F6D696E672042756D702044BC
:1049C000697669736F72203C20310A003F004361B1
:1049D0006E63656C004D6F74696F6E005374617225
:1049E00074205072696E740043616E6E6F7420653E
:1049F0006E746572207375626469723A2000022ECB
:104A00002E00536F667420456E6473746F7073006C
:104A100044697361626C652053746570706572736C
:104A2000004C6576656C20436F726E65727300464C
:104A300061646520486569676874004732380A47D1
:104A40003239004C6576656C204265640047323827
:104A50005A00486F6D65205A004732385900486F38
:104A60006D652059004732385800486F6D652058F1
:104A700000473238004175746F20486F6D65004FF4
:104A8000666673657473204170706C696564004577
:104A900072723A20546F6F206661722100546F6FFA
:104AA000206661722066726F6D2072656665726540
:104AB0006E636520706F696E740A004361703A001E
:104AC0004D302053746F70004D312053746F70005F
:104AD000436C69636B20746F20526573756D652E2E
:104AE0002E2E0050726F6265204F666673657420CB
:104AF0005A0050726F6265204F66667365745A3A49
:104B000020003F5A206F7574206F662072616E67B7
:104B1000652028003F59206F7574206F66207261F0
:104B20006E676520282D0020746F20003F58206F8D
:104B30007574206F662072616E676520282D0050A5
:104B4000726F6265204F6666736574205800656EEB
:104B50007175657565696E672022007C3C3E5E2B31
:104B60003D3F2F5B5D3B2C2A225C002053697A6518
:104B70003A200043616E6E6F74206F70656E207313
:104B80007562646972200053442063617264206F0F
:104B90006B0A006F70656E526F6F74206661696C8E
:104BA00065640A00766F6C756D652E696E69742098
:104BB0006661696C65640A00534420696E697420FB
:104BC0006661696C0A004D32332025730046696CBA
:104BD000652073656C65637465640A0046696C657D
:104BE000206F70656E65643A2000454E4420535531
:104BF00042524F5554494E450A002220706F7300AF
:104C00002220706172656E743A2200535542524FF1
:104C10005554494E452043414C4C207461726765A0
:104C2000743A2200747279696E6720746F20636130
:104C30006C6C207375622D67636F64652066696CA8
:104C40006573207769746820746F6F206D616E7969
:104C5000206C6576656C732E204D4158206C65760E
:104C6000656C2069733A310A0044656C6574696F3C
:104C70006E206661696C65642C2046696C653A201B
:104C80000046696C652064656C657465643A005320
:104C900044207072696E74696E6720627974652051
:104CA000004E6F74205344207072696E74696E6791
:104CB0000A0057726974696E6720746F2066696CA8
:104CC000653A2000667265736800646F696E6700FC
:104CD0004E6F7720002F2F616374696F6E3A006208
:104CE0006567696E0073686F770044697361626C11
:104CF0006552756E6F75740050757267654D6F7291
:104D00006500486F74656E6420746F6F20636F6C0C
:104D1000640A0053656E64204D31303820746F2072
:104D2000726573756D650A0052656865617420442B
:104D30006F6E6500526568656174696E67005265E3
:104D4000686561740048656174657254696D656F6A
:104D500075740053656E64204D31303820746F20B7
:104D600068656174206E6F7A7A6C650A004E6F7A9E
:104D70007A6C65205061726B656400706175736553
:104D800064004D3630303A20546F6F20436F6C64AE
:104D900000726573756D656400526573756D696E3B
:104DA000670020204D61783A200020204D696E3A3E
:104DB0002000536F667420656E6473746F70733A6D
:104DC0002000496E76616C69642050696E204D6FD9
:104DD00064650A004D32342053256C642054256CE0
:104DE00064004739322E392045257300473120466B
:104DF0002564004739322E39205A25730047312067
:104E00005A3020463230300047312058257320591F
:104E10002573204633303030004D34323020532556
:104E200069205A2573004D313036205025692053B2
:104E30002569004D31303920532569004D31393015
:104E400020532569004D3230302044257300473906
:104E5000322E392045305A300A47315A320A473209
:104E60003852305859004D343230205330205A30A7
:104E70000020496E76616C6964206578747275648F
:104E8000657220005072696E74205061757365649C
:104E90000020746F6F206C6F6E6720657874727578
:104EA00073696F6E2070726576656E7465640A0052
:104EB00020636F6C6420657874727573696F6E20FF
:104EC00070726576656E7465640A00220A00556E1C
:104ED0006B6E6F776E20636F6D6D616E643A20222A
:104EE00000466F726D626F7420526170746F72321F
:104EF0002052656164792E005072696E74696E6724
:104F00002E2E2E0020453A00205A3A0020593A0011
:104F10004732362048656174696E67204E6F7A7A31
:104F20006C65004732362048656174696E672042BF
:104F300065640057616974696E6720666F722068E6
:104F400065617475702E0A004669786564204C6549
:104F50006E677468205072696D6500446F6E6520DD
:104F60005072696D696E67004D616E75616C20707D
:104F700072696D696E672E2E2E00473236204361AE
:104F80006E63656C6564004C656176696E67204789
:104F90003236003F53706563696669656420582C3A
:104FA0005920636F6F7264696E617465206F7574E8
:104FB000206F6620626F756E64732E0A003F285260
:104FC0002965706561742076616C7565206E6F74FB
:104FD00020706C61757369626C653B206D757374CC
:104FE000206265206174206C6561737420312E0A23
:104FF000003F537065636966696564206E6F7A7AF5
:105000006C652074656D7065726174757265206E73
:105010006F7420706C61757369626C652E0A003F55
:105020005370656369666965642066696C616D6566
:105030006E742073697A65206E6F7420706C617570
:105040007369626C652E0A003F5370656369666917
:105050006564207072696D65206C656E6774682088
:105060006E6F7420706C61757369626C652E0A00D6
:105070003F537065636966696564206E6F7A7A6C08
:10508000652073697A65206E6F7420706C6175732A
:1050900069626C652E0A003F5265747261637469BF
:1050A0006F6E204D756C7469706C696572206D75DA
:1050B0007374206265207370656369666965642E28
:1050C0000A003F53706563696669656420526574C0
:1050D00072616374696F6E204D756C7469706C6970
:1050E0006572206E6F7420706C61757369626C6597
:1050F0002E0A003F537065636966696564206C61C0
:1051000079657220686569676874206E6F742070B5
:105110006C61757369626C652E0A0043292E0A0062
:105120003F537065636966696564206265642074D5
:10513000656D7065726174757265206E6F74207034
:105140006C61757369626C65202834302D004732BC
:1051500036207374617274696E672E2E2E0A0045B4
:1051600073746570732F6D6D005A73746570732F4F
:105170006D6D005973746570732F6D6D0058737485
:105180006570732F6D6D00496E6974004D3432384F
:1051900000496E697469616C697A652045455052B1
:1051A0004F4D0043616E63656C204F626A656374A6
:1051B0000053746570732F6D6D0050726F626520BF
:1051C0004F666673657473004A65726B0041636372
:1051D000656C65726174696F6E0056656C6F6369AA
:1051E00074790053657420486F6D65204F6666734F
:1051F000657473004E65787420506F696E74004E4C
:1052000065787400486F6D696E672058595A004E72
:105210004F005945530043616E63656C204F626ACD
:10522000656374203D00436D643A2053746F7700CA
:10523000436D643A204465706C6F7900436D643A45
:105240002053572D4D6F646500436D643A205365BC
:105250006C662D5465737400436D643A2052657317
:105260006574005654726176204D696E00566D6902
:105270006E00566D6178204500566D6178205A00A9
:10528000566D6178205900566D6178205800416D47
:105290006178204500416D6178205A00416D617848
:1052A000205900416D6178205800412D547261767B
:1052B000656C00412D5265747261637400416363D3
:1052C000656C004A756E6374696F6E204465760084
:1052D00050726F62652059204F6666736574005086
:1052E000726F62652058204F666673657400000017
:1052F0002100240027002A002D0030003300010186
:105300000000040107010A01000022002500280016
:105310002B002E00310034000201000005010801BD
:105320000B01000020002300260029002C002F0084
:105330003200000100000301060109010505050511
:10534000070508080808020202020A0A08080404FD
:10535000040401010101010101010303030303032B
:105360000303040707070C0C0C0C0C0C0C0C0202BA
:10537000020206060606060606060B0B0B0B0B0BB7
:105380000B0B010210202008081020401020408044
:1053900002010201080402010102040810204080F9
:1053A0008040201008040201800402018040201087
:1053B00008040201080402010102040810204080D0
:1053C000010204081020408000000A0B02090C0DA5
:1053D0000E080703040100000000000000000000A8
:1053E00000000000000000000000000000000000BD
:1053F000000000001211100000000000000000007A
:1054000000000000000000000000000000004D6FE0
:1054100076652025736D6D004D6F766520302E31D9
:105420006D6D004D6F766520316D6D004D6F766549
:105430002031306D6D004D6F7665204178697300C5
:10544000486F74656E6420746F6F20636F6C6400C6
:105450004578747275646572004D6F7665205A00E8
:105460004D6F76652059004D6F7665205800436872
:10547000616E67652046696C616D656E7400556E7E
:105480006C6F61642046696C616D656E74004C6F71
:1054900061642046696C616D656E74005072656868
:1054A00065617420414253005072656865617420E3
:1054B000504C410050726568656174204375737487
:1054C0006F6D004261636B002000A401C1005E01AA
:1054D000CC005901D9005401E7004F01F5004A0101
:1054E00006014501170140012A013B013E01360139
:1054F000540131016C012C0186012701A301220115
:10550000C2011D01E40118010902130131020E015B
:10551000670209018E020401C302FF00FD02FA00C6
:105520003C03F5008303F000D003EB002404E60005
:105530008104E100E804DC005905D700D505D2005C
:105540005E06CD00F506C8009B07C3005208BE00EA
:105550001B09B900F909B400EB0AAF00F50BAA006A
:10556000180DA500550EA000AE0F9B00241196004B
:10557000B712910068148C00371687002218820039
:10558000281A7D00461C7800791E7300BD206E002D
:105590000B2369005E256400AF275F00F8295A00DD
:1055A000332C5500582E5000BA304B00993246002B
:1055B00016344100B8353C003437370088383200A3
:1055C000B6392D00BE3A2800A43B2300693C1E00DA
:1055D000113D19009E3D1400163E0F00763E0A0054
:1055E000C63E0500083F00003C3FFBFF663FF6FF5C
:1055F000873FF1FFA13FECFFB53FE7FFC53FE2FF6B
:10560000D03FDDFFD93FD8FFE03FD3FFE43FCEFFDF
:105610001000AA03F0013A019002220130031001A8
:10562000D00302017004F7001005ED00B005E5009D
:105630005006DD00F006D7009007D1003008CC00FE
:10564000D008C7007009C300100ABE00B00ABB0032
:10565000500BB700F00BB300900CB000D00DAA00B7
:10566000100FA5005010A00090119B00D0129600C2
:10567000B014900090168B0070188500501A8000AE
:10568000301C7B00B01E750030216F00B023690014
:105690003026640010285F00902A5A00702C5500B4
:1056A000F02E4F0070314800B0324500F033410019
:1056B00070363900103737005038330090392D00DC
:1056C000D03A2700B03C1C00503D1700F03D1100BF
:1056D000903E0900D03FE5FF496E76616C69642019
:1056E00065787472756465720A00202D20496E76A3
:1056F000616C6964206578747275646572206E757A
:105700006D62657220210A00544845524D414C207B
:1057100052554E4157415900546865726D616C2075
:1057200052756E61776179004572723A204D415829
:1057300054454D50004D415854454D5020747269A8
:10574000676765726564004572723A204D494E5430
:10575000454D50004D494E54454D50207472696777
:105760006765726564004D383420582059205A20EE
:105770004500202F002042403A0020403A002057A8
:105780003A0054656D70657261747572650050728F
:105790006F6265205A204F66667365740046616EBD
:1057A000205370656564004D61696E004C617365DE
:1057B00072204F6E004C61736572204F6666005018
:1057C00072656865617420504C4120456E640050DC
:1057D00072656865617420504C41204265640050D8
:1057E0007265686561742041425320456E640050C3
:1057F00072656865617420414253204265640043CC
:105800006F6F6C646F776E00466C6F7700256875FC
:105810003A25303268750025303268753A253032C5
:105820006875001FE020102010201010201020208C
:1058300010201030300840048003001FE03FF03F8C
:10584000F03FF01FE01FE03FF03FF03FF00FC007D8
:105850008003003FFFF038007030FC3020FC102047
:1058600078102030102C00D02E31D02F7BD02F7B01
:10587000D02E31D02C00D020301020781020FC10F9
:1058800030FC303800703FFFF03FFFF038007031DF
:1058900086302387102787902F87D02F03D0203082
:1058A000102078102078102030102F03D02F87D0B0
:1058B0002787902387103186303800703FFFF01F14
:1058C000FFF81FFFF804104002082002082004100F
:1058D0004008208010410010410008208004104042
:1058E0000000001FFFF81FFFF8FFFFFF8000018E80
:1058F00000E19F01F19381399F81F99F81F99FB95F
:10590000F98F28F18038018000019FFFF991749987
:105910009B06A99B54A99B56A99B54999FFFF9FFED
:10592000FFFF6F70656E206661696C65642C2046B0
:10593000696C653A20004F46460A0046616465205E
:105940004865696768742000426564204C65766527
:105950006C696E6720004661696C656420746F2015
:10596000656E61626C6520426564204C6576656C8D
:10597000696E670A00496E76616C6964206D6573B3
:10598000682E0A0050726F62696E6720506F696EF0
:10599000740025532025692F25690050726F6269B4
:1059A0006E67206D65736820706F696E74200020CB
:1059B0002844525952554E290047323920417574B6
:1059C0006F20426564204C6576656C696E67003FA8
:1059D00020284C2C522C462C4229206F7574206FA5
:1059E0006620626F756E64732E0A003F2856296523
:1059F00072626F7365206C6576656C20696D706C82
:105A000061757369626C652028302D34292E0A0077
:105A1000426164205A2076616C75650A004E6F20E1
:105A200062696C696E65617220677269640A00411F
:105A30006363656C65726174696F6E3A2050002013
:105A40004D39322058005072696E742066726F6D45
:105A5000204D6564696100205A3A200020593A209F
:105A60000042656420583A2000496E7365727420C4
:105A700066696C616D656E7420616E642073656E1D
:105A800064204D3130380A0050726F62696E6720B1
:105A90004661696C65640A0050726F62696E6720C6
:105AA0004661696C656400486F6D652025732573D8
:105AB000257320466972737400627574746F6E008A
:105AC000436F6E74696E7565004C6F616420466942
:105AD0006C616D656E74205400506C656173652057
